{
  "contractName": "scooterTransactions",
  "abi": [
    {
      "inputs": [],
      "payable": false,
      "stateMutability": "nonpayable",
      "type": "constructor"
    },
    {
      "constant": true,
      "inputs": [],
      "name": "totalBalance",
      "outputs": [
        {
          "internalType": "uint256",
          "name": "",
          "type": "uint256"
        }
      ],
      "payable": false,
      "stateMutability": "view",
      "type": "function"
    },
    {
      "constant": false,
      "inputs": [],
      "name": "destroyContract",
      "outputs": [],
      "payable": false,
      "stateMutability": "nonpayable",
      "type": "function"
    },
    {
      "constant": false,
      "inputs": [],
      "name": "makePayment",
      "outputs": [],
      "payable": true,
      "stateMutability": "payable",
      "type": "function"
    },
    {
      "constant": false,
      "inputs": [],
      "name": "withdrawPayments",
      "outputs": [],
      "payable": false,
      "stateMutability": "nonpayable",
      "type": "function"
    }
  ],
  "bytecode": "0x608060405234801561001057600080fd5b5033600160006101000a81548173ffffffffffffffffffffffffffffffffffffffff021916908373ffffffffffffffffffffffffffffffffffffffff160217905550610351806100616000396000f3fe60806040526004361061003f5760003560e01c8063092a5cce146100445780636103d70b1461005b578063ad7a672f14610072578063d8d797001461009d575b600080fd5b34801561005057600080fd5b506100596100a7565b005b34801561006757600080fd5b50610070610188565b005b34801561007e57600080fd5b506100876102a2565b6040518082815260200191505060405180910390f35b6100a56102a8565b005b600160009054906101000a900473ffffffffffffffffffffffffffffffffffffffff1673ffffffffffffffffffffffffffffffffffffffff163373ffffffffffffffffffffffffffffffffffffffff161461014d576040517f08c379a000000000000000000000000000000000000000000000000000000000815260040180806020018281038252602e8152602001806102ef602e913960400191505060405180910390fd5b600160009054906101000a900473ffffffffffffffffffffffffffffffffffffffff1673ffffffffffffffffffffffffffffffffffffffff16ff5b600160009054906101000a900473ffffffffffffffffffffffffffffffffffffffff1673ffffffffffffffffffffffffffffffffffffffff163373ffffffffffffffffffffffffffffffffffffffff161461022e576040517f08c379a00000000000000000000000000000000000000000000000000000000081526004018080602001828103825260258152602001806102ca6025913960400191505060405180910390fd5b600160009054906101000a900473ffffffffffffffffffffffffffffffffffffffff1673ffffffffffffffffffffffffffffffffffffffff166108fc6000549081150290604051600060405180830381858888f19350505050158015610298573d6000803e3d6000fd5b5060008081905550565b60005481565b600054346000540110156102b857fe5b34600080828254019250508190555056fe4f6e6c7920746865206f776e65722063616e207769746864726177207061796d656e7473214f6e6c7920746865206f776e65722063616e2064657374726f792074686520736d61727420636f6e747261637421a265627a7a72315820f6003da8cae120cd9a897af267b209ff746f3d19f5655b717d9d1ac7794fb19464736f6c63430005100032",
  "source": "pragma solidity >=0.4.21 <0.7.0;\n\ncontract scooterTransactions {\n    \n    uint public totalBalance;\n    address payable owner;\n    \n    // Stores the address of the person who deployed\n    // the contract\n    constructor() public {\n        owner = msg.sender;\n    }\n    \n    // Destroys the contract and sends all the funds\n    // to the owner\n    function destroyContract() public {\n        require(msg.sender == owner, 'Only the owner can destroy the smart contract!');\n        selfdestruct(owner);\n    }\n    \n    // Makes a payment to the smart contract\n    function makePayment() public payable {\n        assert(totalBalance + msg.value >= totalBalance);\n        totalBalance += msg.value;\n    }\n    \n    // Sends all the payments to the owner\n    function withdrawPayments() public {\n        require(msg.sender == owner, 'Only the owner can withdraw payments!');\n        owner.transfer(totalBalance);\n        totalBalance = 0;\n    }\n}",
  "sourcePath": "C:\\Users\\gkaza\\Documents\\Repos\\reactBox\\contracts\\scooterTransactions.sol",
  "compiler": {
    "name": "solc",
    "version": "0.5.16+commit.9c3226ce.Emscripten.clang"
  },
  "schemaVersion": "3.0.23",
  "updatedAt": "2020-03-26T06:21:38.535Z",
  "networkType": "ethereum",
  "devdoc": {
    "methods": {}
  },
  "userdoc": {
    "methods": {}
  }
}